:020000040800F2
:1000000000070020F1020008954400084D44000854
:10001000754400084D4400086D440008F3020008D0
:10002000F3020008F3020008F3020008D17A000886
:10003000F3020008F3020008F3020008F3020008CC
:10004000F3020008F3020008F3020008F3020008BC
:10005000F3020008F302000829BC000855BC0008A0
:1000600081BC0008ADBC0008D9BC0008957B000825
:10007000BD7B0008E97B0008157C0008417C000876
:10008000697C0008957C0008F30200081943000809
:10009000F302000829430008F302000805BD000828
:1000A000F3020008F3020008F3020008F30200085C
:1000B000F3020008F3020008F3020008F30200084C
:1000C000F3020008F3020008F3020008F30200083C
:1000D000F3020008F3020008F3020008F30200082C
:1000E00069BD0008F3020008F3020008F3020008EB
:1000F000F3020008F3020008F3020008C17C0008C4
:10010000F3020008DDBD000805BE0008F302000888
:10011000F3020008F3020008F3020008F3020008EB
:10012000ED7C0008157D0008417D00086D7D00080C
:10013000997D0008F3020008F3020008F3020008AA
:10014000F3020008F3020008F3020008F3020008BB
:10015000C17D0008ED7D0008197E0008F30200084B
:10016000F3020008F3020008F3020008F30200089B
:10017000F302000809B90008F3020008F3020008BE
:10018000F3020008F3020008F1BD0008F3020008C2
:10019000F3020008F3020008F3020008F30200086B
:1001A000F3020008F3020008F3020008F30200085B
:1001B000F3020008F3020008F3020008F30200084B
:1001C000F3020008F3020008F3020008F30200083B
:1001D000F3020008F5B80008F3020008F302000873
:1001E000F3020008F3020008F3020008F30200081B
:1001F000F3020008F3020008F3020008F30200080B
:10020000F3020008F3020008F3020008F3020008FA
:10021000F3020008F3020008F3020008F3020008EA
:10022000F3020008F3020008F3020008F3020008DA
:10023000F3020008F3020008F3020008F3020008CA
:10024000F3020008F3020008F3020008F3020008BA
:10025000F3020008F3020008F3020008F3020008AA
:10026000F3020008F3020008F3020008F30200089A
:10027000F3020008F3020008F3020008F30200088A
:10028000F3020008F3020008F3020008F30200087A
:10029000F3020008F3020008F3020008F30200086A
:1002A000F3020008F3020008F3020008F30200085A
:1002B000F3020008F3020008F3020008F30200084A
:1002C000F3020008F3020008F3020008F30200083A
:1002D000F3020008F3020008F3020008F30200082A
:1002E0002D1A0008000000000000000000000000BF
:1002F00002E000F000F8FEE772B6374880F30888A5
:10030000364880F3098836483649086040F20000D4
:10031000CCF200004EF63471CEF200010860BFF35B
:100320004F8FBFF36F8F40F20000C0F2F0004EF627
:100330008851CEF200010860BFF34F8FBFF36F8F7B
:100340004FF00000E1EE100A4EF63C71CEF20001D3
:100350000860062080F31488BFF36F8F0AF040FD19
:1003600009F0ACFE4FF055301F491B4A91423CBF8B
:1003700041F8040BFAE71D49184A91423CBF41F885
:10038000040BFAE71A491B4A1B4B9A423EBF51F82D
:10039000040B42F8040BF8E700201849184A914270
:1003A0003CBF41F8040BFAE70AF058FD09F00AFFD8
:1003B000144C154DAC4203DA54F8041B8847F9E796
:1003C00000F0C4F9114C124DAC4203DA54F8041B8E
:1003D0008847F9E70AF040BD00070020002300200D
:1003E0000000000808ED00E00001002000070020E8
:1003F000A0D20008002300207423002078230020CE
:10040000D8890020E0020008E4020008E4020008A5
:10041000E40200082DE9F04F2DED108AC1F80CD050
:10042000D0F80CD0BDEC108ABDE8F08F002383F328
:1004300011882846A047002009F022FCFEE709F0B9
:100440006BFB00DFFEE7000053B94AB9002908BF83
:1004500000281CBF4FF0FF314FF0FF3000F074B99F
:10046000ADF1080C6DE904CE00F006F8DDF804E00B
:10047000DDE9022304B070472DE9F047089D0446EA
:100480008E46002B4DD18A42944669D9B2FA82F247
:1004900052B101FA02F3C2F1200120FA01F10CFA83
:1004A00002FC41EA030E94404FEA1C48210CBEFBBB
:1004B000F8F61FFA8CF708FB16E341EA034306FB44
:1004C00007F199420AD91CEB030306F1FF3080F0D3
:1004D0001F81994240F21C81023E63445B1AA4B220
:1004E000B3FBF8F008FB103344EA034400FB07F7C2
:1004F000A7420AD91CEB040400F1FF3380F00A8103
:10050000A74240F207816444023840EA0640E41BF7
:1005100000261DB1D4400023C5E900433146BDE8A3
:10052000F0878B4209D9002D00F0EF800026C5E945
:10053000000130463146BDE8F087B3FA83F6002E5D
:100540004AD18B4202D3824200F2F980841A61EBD5
:10055000030301209E46002DE0D0C5E9004EDDE7F3
:1005600002B9FFDEB2FA82F2002A40F09280A1EBDB
:100570000C014FEA1C471FFA8CFE0126200CB1FB30
:10058000F7F307FB131140EA01410EFB03F0884229
:1005900008D91CEB010103F1FF3802D2884200F2B6
:1005A000CB804346091AA4B2B1FBF7F007FB101148
:1005B00044EA01440EFB00FEA64508D91CEB0404E6
:1005C00000F1FF3102D2A64500F2BB800846A4EB41
:1005D0000E0440EA03409CE7C6F12007B34022FA2C
:1005E00007FC4CEA030C20FA07F401FA06F31C435B
:1005F000F9404FEA1C4900FA06F3B1FBF9F8200C68
:100600001FFA8CFE09FB181140EA014108FB0EF0AD
:10061000884202FA06F20BD91CEB010108F1FF3AFD
:1006200080F08880884240F28580A8F10208614409
:10063000091AA4B2B1FBF9F009FB101144EA014117
:1006400000FB0EFE8E4508D91CEB010100F1FF34C2
:100650006CD28E456AD90238614440EA0840A0FB5A
:100660000294A1EB0E01A142C846A64656D353D030
:100670005DB1B3EB080261EB0E0101FA07F722FA54
:1006800006F3F1401F43C5E9007100263146BDE87D
:10069000F087C2F12003D8400CFA02FC21FA03F3E0
:1006A000914001434FEA1C471FFA8CFEB3FBF7F061
:1006B00007FB10360B0C43EA064300FB0EF69E4286
:1006C00004FA02F408D91CEB030300F1FF382FD21F
:1006D0009E422DD9023863449B1B89B2B3FBF7F6C7
:1006E00007FB163341EA034106FB0EF38B4208D9A0
:1006F0001CEB010106F1FF3816D28B4214D9023EE1
:100700006144C91A46EA004638E72E46284605E7FE
:100710000646E3E61846F8E64B45A9D2B9EB0208CF
:1007200064EB0C0E0138A3E74646EAE7204694E75F
:100730004046D1E7D0467BE7023B614432E7304692
:1007400009E76444023842E7704700BFF8B502F099
:100750003BF802F0F3F90AF023FA07460AF036FBF9
:100760000546C0BB214B9F4235D001339F4235D057
:1007700027F0FF021E4B9A4233D12E4642F21074EC
:10078000F8B200F0ABFF00F0AFFF08B1002426463E
:1007900002F016FC20B10024032000F07DF826466C
:1007A00035B1144B9F4203D000240AF007FB2646C4
:1007B00000200AF0FFF90EB100F084F802F05CF9B5
:1007C00000F0C6FF01F0B6FA08B100F07BF8204651
:1007D00000F036F9F9E72E460024D4E70446012656
:1007E000D1E7064641F28834CDE700BF010007B0EB
:1007F000000008B0263A09B008B501F0B1FFA0F139
:1008000020035842584108BD07B541F212030221A6
:1008100001A8ADF8043001F0C1FF03B05DF804FB9E
:1008200038B5302383F31188174803680BB109F0FA
:100830000BFB0023154A4FF47A71134809F0FAFABA
:10084000002383F31188124C236813B12368013B02
:100850002360636813B16368013B63600D4D2B78BF
:1008600033B963687BB9022002F070F83223636009
:100870002B78032B07D163682BB9022002F066F8AE
:100880004FF47A73636038BD782300202108000894
:100890009824002090230020084B187003280CD8BF
:1008A000DFE800F008050208022002F047B8022045
:1008B00002F03AB8024B00225A60704790230020A1
:1008C00098240020F8B502F07BFB30B1544B032292
:1008D0001A700022534B5A60F8BD534B534A1C46C2
:1008E00019680131F8D004339342F9D16268504B52
:1008F0009A42F1D94F4B9B6803F1006303F5003333
:100900009A42E9D20AF02EFA0AF040FA002001F0E9
:1009100081FF0220FFF7C0FF474B0021D3F8E820FA
:10092000C3F8E810D3F81021C3F81011D3F8102140
:10093000D3F8EC20C3F8EC10D3F81421C3F8141149
:10094000D3F81421D3F8F020C3F8F010D3F818210D
:10095000C3F81811D3F81821D3F8802042F00062B0
:10096000C3F88020D3F8802022F00062C3F88020F2
:10097000D3F88020D3F8802042F00072C3F88020A2
:10098000D3F8802022F00072C3F88020D3F88030A2
:1009900072B64FF0E023C3F8084DD4E90004BFF36A
:1009A0004F8FBFF36F8F254AC2F88410BFF34F8F6C
:1009B000536923F480335361BFF34F8FD2F88030F3
:1009C00043F6E076C3F3C905C3F34E335B0103EA94
:1009D000060C29464CEA81770139C2F87472F9D2C3
:1009E000203B13F1200FF2D1BFF34F8FBFF36F8F76
:1009F000BFF34F8FBFF36F8F536923F400335361FD
:100A00000023C2F85032BFF34F8FBFF36F8F3023F4
:100A100083F31188854680F3088820475CE700BF90
:100A200090230020982400200000020820000208E3
:100A3000FFFF0108002300200044025800ED00E001
:100A40002DE9F04F93B0B74B2022FF2100900AA868
:100A50009D6801F0BBFFB44A1378A3B90121B348E4
:100A600011700360302383F3118803680BB109F020
:100A7000EBF90023AE4A4FF47A71AC4809F0DAF989
:100A8000002383F31188009B13B1AA4B009A1A60CC
:100A9000A94A1378032B03D000231370A54A53608F
:100AA0004FF0000A009CD3465646D146012001F083
:100AB00045FF24B19F4B1B68002B00F02C820020C7
:100AC00001F04EFE0390039B002B01DA00F088FE3C
:100AD000039B002BEDDB012001F026FF039B213B54
:100AE0001F2BE3D801A252F823F000BF6D0B0008C2
:100AF000950B0008290C0008AD0A0008AD0A000893
:100B0000AD0A0008BB0C00088B0E0008A50D0008FC
:100B1000070E00082F0E0008550E0008AD0A000849
:100B2000670E0008AD0A0008D90E00080D0C000879
:100B3000AD0A00081D0F0008790B00080D0C000815
:100B4000AD0A0008070E0008AD0A0008AD0A00084B
:100B5000AD0A0008AD0A0008AD0A0008AD0A000899
:100B6000AD0A0008AD0A0008290C00080220FFF7B2
:100B700043FE002840F0F981009B022105A8BAF14C
:100B8000000F08BF1C4641F21233ADF8143001F0DB
:100B900005FE8BE74FF47A7001F0E2FD071EEBDBF8
:100BA0000220FFF729FE0028E6D0013F052F00F2C2
:100BB000DE81DFE807F0030A0D1013360523042158
:100BC00005A8059301F0EAFD17E004215548F9E76F
:100BD00004215A48F6E704215948F3E74FF01C086E
:100BE000404608F1040801F017FE0421059005A80D
:100BF00001F0D4FDB8F12C0FF2D101204FF0000923
:100C000000FA07F747EA0B0B5FFA8BFB01F02AFFAC
:100C100026B10BF00B030B2B08BF0024FFF7F4FDEC
:100C200044E704214748CDE7002EA5D00BF00B0385
:100C30000B2BA1D10220FFF7DFFD074600289BD038
:100C40000120002601F0E6FD0220FFF725FE1FFA35
:100C500086F8404601F0EEFD0446B0B103994046E7
:100C60000136A1F140025142514101F0FBFD002843
:100C7000EDD1BA46044641F21213022105A83E46C0
:100C8000ADF8143001F08AFD10E725460120FFF78A
:100C900003FE244B9B68AB4207D9284601F0BCFDFC
:100CA000013040F067810435F3E70025224BBA4656
:100CB0003E461D701F4B5D60A8E7002E3FF45CAF01
:100CC0000BF00B030B2B7FF457AF0220FFF7E4FD73
:100CD000322001F045FDB0F10008FFF64DAF18F0ED
:100CE00003077FF449AF0F4A08EB0503926893426C
:100CF0003FF642AFB8F5807F3FF73EAF124BB845A5
:100D0000019323DD4FF47A7001F02AFD0390039ADA
:100D1000002AFFF631AF039A0137019B03F8012B3C
:100D2000EDE700BF0023002094240020782300205A
:100D3000210800089824002090230020042300208C
:100D4000082300200C23002094230020C820FFF754
:100D500053FD074600283FF40FAF1F2D11D8C5F1F2
:100D600020020AAB25F0030084494245184428BFFD
:100D70004246019201F004FE019AFF217F4801F0F2
:100D800025FE4FEAA803C8F387027C492846019351
:100D900001F024FE064600283FF46DAF019B05EBF1
:100DA000830533E70220FFF727FD00283FF4E4AE78
:100DB00001F06AFD00283FF4DFAE0027B846704B13
:100DC0009B68BB4218D91F2F11D80A9B01330ED044
:100DD00027F0030312AA134453F8203C059340461E
:100DE000042205A9043702F0D5F88046E7E7384623
:100DF00001F012FD0590F2E7CDF81480042105A85A
:100E000001F0CCFC02E70023642104A8049301F064
:100E1000BBFC00287FF4B0AE0220FFF7EDFC0028F9
:100E20003FF4AAAE049801F025FD0590E6E7002303
:100E3000642104A8049301F0A7FC00287FF49CAE71
:100E40000220FFF7D9FC00283FF496AE049801F089
:100E500013FDEAE70220FFF7CFFC00283FF48CAE39
:100E600001F022FDE1E70220FFF7C6FC00283FF475
:100E700083AE05A9142001F01DFD0746042104904E
:100E800004A801F08BFC3946B9E7322001F068FC78
:100E9000071EFFF671AEBB077FF46EAE384A07EB54
:100EA0000903926893423FF667AE0220FFF7A4FC65
:100EB00000283FF461AE27F003074F44B9453FF4E3
:100EC000A5AE484609F1040901F0A6FC04210590ED
:100ED00005A801F063FCF1E74FF47A70FFF78CFC92
:100EE00000283FF449AE01F0CFFC002844D00A9B13
:100EF00001330BD008220AA9002001F06FFD002861
:100F00003AD02022FF210AA801F060FDFFF77CFC07
:100F10001C4808F0BBFE13B0BDE8F08F002E3FF474
:100F20002BAE0BF00B030B2B7FF426AE00236421BA
:100F300005A8059301F028FC074600287FF41CAEA5
:100F40000220FFF759FC804600283FF415AEFFF75A
:100F50005BFC41F2883008F099FE059801F0CCFD69
:100F600046463C4601F07EFDA0E506464EE64FF0C3
:100F7000000901E6BA467EE637467CE69423002067
:100F800000230020A0860100094A49F26900136885
:100F900099B21B0C00FB013344F250611360054B06
:100FA000186882B2000C01FB0200186080B2704722
:100FB000142300201023002070470000002110227D
:100FC00010B5044601F002FD034B03CB20606160C5
:100FD0001868A06010BD00BF00E8F11FF0B5ADF5C6
:100FE0004F7D4FF4C47207460D466CAC002120467D
:100FF00001F0ECFC03F056FA4FF47A72254BB0FB8B
:10100000F2F0186093E80700022384E807000DF56A
:10101000E9702382FFF7D2FF49F60F431E4907A864
:1010200023840BF08DFB16230DF2E3220DF12C0C23
:1010300084F8323107AB1E46083203CE664542F8CB
:10104000080C42F8041C3346F5D130681060204685
:10105000B3880DAE93803146012201F081FD00235B
:1010600080B2E97E0393AB7E029305F119030193ED
:101070000123009305A3D3E90023CDE9046038469A
:1010800003F028FE0DF54F7DF0BD00BF9E6AC42120
:10109000818A46EEA024002078C700082DE9F0419F
:1010A0002C4CDAB080460D46237A5BBB27A9284634
:1010B00001F07AFE0746002842D19DF89D60C82EB7
:1010C0003ED801464FF4A662204601F07FFC4FF463
:1010D000807332460DF19E01C4F8F8314FF400736D
:1010E00004F109002644C4F80C334FF44073C4F8EB
:1010F000203401F045FC9DF89C30777223720BB9C7
:10110000EB7E237206AC8122002127A801F05EFC51
:101110000122214627A801F08DFE002380B2E97E3E
:101120000393AB7E029305F1190301932823CDE9C4
:1011300004400093404605A3D3E9002303F0CAFD11
:101140005AB0BDE8F08100BFAFF300802641727253
:10115000DF25D7B700350020F0B5254E4FF48A754E
:10116000F1B0002405FB006596F8D830D82221465E
:1011700085F8DC303AA885F8E84006AF01F026FC97
:1011800006F1090001F01AFCD5F8E430C2B206F10C
:1011900009018DF8F0000DF1F100CDE93A3401F0CC
:1011A000EFFB394601223AA801F07AFE082380B20B
:1011B000317ACDE9047001270E48CDE9023706F1F6
:1011C000D80301933023009307A3D3E9002303F04E
:1011D00081FDA04206DD03F065F9C5F8E000384660
:1011E00071B0F0BD2046FBE778F6339F93CACD8DF2
:1011F00000350020B83400202DE9F0411D4D86B0A7
:101200001D4E1E4F284603F091FD034658B300249F
:10121000DFF86C80ADF814400294CDE90344027B02
:101220008DF8142003AA9968406803C21B6843F034
:101230000043029303F038F982190094384641F1D3
:10124000000302A902F0D2F8A04205DD284603F00F
:1012500071FD88F80040D5E798F80030072B05D8D5
:10126000013388F8003006B0BDE8F081014803F092
:1012700061FDF8E7B834002040420F00383A002002
:10128000353A002070B50D4614461E4603F07EFC2C
:1012900050B9022E10D1012C0ED112A3D3E9002394
:1012A0000120C5E9002307E0282C10D005D8012C27
:1012B00009D0052C0FD0002070BD302CFBD10BA322
:1012C000D3E90023ECE70BA3D3E90023E8E70BA362
:1012D000D3E90023E4E70BA3D3E90023E0E700BF51
:1012E000AFF30080401DA12026812A0B78F6339FA2
:1012F00093CACD8D9E6AC421818A46EE26417272C0
:10130000DF25D7B7F017304A39059E5638B5054660
:101310000E4C0021013501F0A5FAA4F82C55B4F8C3
:101320002C0501F087FA78B1B4F82C0501F092FA97
:10133000014648B9B4F82C0501F094FAB4F82C35FC
:101340000133A4F82C35EAE738BD00BF0035002092
:10135000F0B589B005460C4616460D494FF4227289
:1013600007A81F4601F0AAFEBDF83C302A460096A9
:1013700004930E9B074803931823CDE9017323467A
:1013800003F04AFC07A801F0A3FE09B0F0BD00BFBE
:10139000E8340020B83400200A4B0B4A10B51A601C
:1013A00003F5805393F858203AB95C6D2CB1204670
:1013B00001F096FE204601F0D5FF0448BDE810403C
:1013C00001F08EBE383A0020B8C80008784A0020E4
:1013D0002DE9F04F8FB005460C4600AF03F0D6FB69
:1013E00000284BD1237E022B1BD1E38A012B18D17D
:1013F00003F058F80646FFF7C7FD03464FF4C870E0
:1014000006F51676DFF8D082B3FBF0F202FB10335C
:1014100016FA83F3C8F80030E37E33B9A74B0022F5
:101420001A703C37BD46BDE8F08F07F12401204615
:1014300001F06EFC0028F4D107F11400FFF7BEFDA7
:1014400097F8264007F1140107F1270022460BF018
:101450001DF90028E2D10F2C08D8984B1C70D8F841
:101460000030A3F51673C8F80030DAE797F82410B7
:101470000029D6D0284603F081FBD2E7E38A282B47
:1014800033D010D8012B2BD0052BCAD1BFF34F8FEF
:101490008B498C4BCA6802F4E0621343CB60BFF304
:1014A0004F8F00BFFDE7302BBBD1874EE17E327AF4
:1014B0009142B6D1607E3146002291F8DC508542DF
:1014C00000F0AD80013201F58A71042AF5D132684D
:1014D00040F6B831FA328A4294BF32603160A0E7F8
:1014E00021462846FFF77AFD9BE721462846FFF76D
:1014F000D5FD96E7B2F8EC507B6005F103094FEAA1
:1015000099094FEA8902D11DC908A8EBC10300213E
:101510009D46EB46584601F059FA04F1EE012A4681
:101520005846314401F02CFA7B6813B9012001F0D0
:1015300071F996F8D20001F07DF9044630B93072A5
:1015400001F0A2F9204601F065F9B0E0D6F8D42008
:101550003AB996F8D200B6F82C25824201D8FFF7A6
:10156000D5FED6F8D4202A44944208D296F8D20068
:10157000B6F82C250130824201D8FFF7C7FE5FFA8A
:1015800089F25946706801F029FA08B9C54679E030
:10159000726896F8D2002A447260D6F8D42005EB1F
:1015A0000209C6F8D49001F045F9814509D396F8AF
:1015B000D220D6F8D4000132001B86F8D220C6F81B
:1015C000D400FF2D0FD80024347201F05DF92046BD
:1015D00001F020F901F0F4FC3C4B188108B9FFF749
:1015E00071F9C5461DE7BB6896F8D9000AFB03628E
:1015F000FB68D2F8E41082F8E83001F58061C2F8A7
:10160000E030C2F8E410FFF7A7FDFFF7F5FD96F80C
:10161000D920013202F0030286F8D920B6E74FF450
:101620008A7A20460AFB02F505F1EA01314401F00D
:101630006BFCF86000287FF4F4AE0122354485F895
:10164000E82002F02FFFD5F8E020D6ED007A801ACE
:1016500040F6B832B8EE677ADFED1D6A192838BF58
:101660001920904228BF104607EE900AF8EEE77A5C
:1016700067EEA67ADFED176AE7EE267AFCEEE77AE8
:10168000C6ED007A96F8D93071680AFB03F4BB60A6
:10169000321992F8E8505DB1D2F8E430E8468B4256
:1016A0003FF428AF002182F8E810C2F8E010C546E8
:1016B0007368064A9B0A01331381B2E6B1340020F5
:1016C00000ED00E00400FA0500350020A024002011
:1016D000CDCCCC3D6666663FB4340020014B18701B
:1016E000704700BFAC24002038B54FF00054144BB5
:1016F00022689A4222D1607DF8B1124B0025C9229E
:10170000114918701148237D0930C0F8DB5000F8EA
:10171000013C4FF48073C0F8EF314FF40073C0F810
:1017200003334FF44073C0F8173401F029F9E02275
:101730002946204601F04AF9012038BD0020FCE787
:101740009AAD44C5AC2400201600002000350020CE
:1017500037B501F035FC194D0223002218492881C4
:101760006B710123174802F0D1F9002316494FF499
:1017700080520193154B16480093164B03F0D6F98F
:10178000154B197811B1124803F0F8F902F08AFEEE
:101790000446FFF7F9FB4FF4C873B0FBF3F202FB0A
:1017A000130304F5167010FA83F00C4B186009F05F
:1017B0000DFB08B10F232B8103B030BDA024002006
:1017C00040420F00383A0020B02400208512000863
:1017D000B8340020D1130008AC240020B434002019
:1017E0002DE9F04F844C2DED028B0FF2F419D9E95D
:1017F00000898FB0FFF700FD07AE00237F4FDFF8B1
:101800001CA20693ADF82430079373609FED768B8E
:101810004FF0000B01250DF10D0203A95B46384680
:101820008DF80C508DF80DB08DED008B02F018FD89
:101830009DF80C30002B40F09C80204603F0A6F968
:101840000646002841D16E4F02F02CFE3B689842BC
:101850003BD302F027FE8246FFF796FB4FF4C87396
:10186000B0FBF3F202FB13030AF5167010FA83F0D3
:1018700038600AA8634F97F800B0CBF1100ABBF1AB
:10188000000F14BF33462B465FFA8AFA8DF81830E2
:10189000FFF794FB0AABBAF1060F0DF1190003EB49
:1018A0000B0128BF4FF0060A524601F069F80AF111
:1018B000010206ABD2B2009301922A46524B4CA1D0
:1018C000D1E90001FFF744FD3E7002F0EBFD4F4A05
:1018D0004F4D1368C31AB3F57A7F29D3106002F015
:1018E000E3FD02460B46204603F02EFA204603F0A5
:1018F0004DF9E8B12B7A0AAF464E002B14BF0323F3
:101900000223737102F0CEFD4FF47A73012239463F
:10191000B0FBF3F03060304601F0D2F93E4B80B2BC
:1019200040F255124946CDE900704046FFF710FDE0
:101930002B7A93B102F0B6FD002607464FF48A7A5F
:1019400095F8D900304400F003000AFB005393F8E7
:10195000E82092B30136042EF2D1C82008F096F99F
:101960002B7A002B7FF446AF0FB0BDEC028BBDE8A5
:10197000F08FDAF81430594610220AA883F00803D1
:10198000CAF8143001F022F80DF10E0304AA06A9DA
:10199000384601F04DFF0BAB96E8030083E80300E7
:1019A0009DF824300AA920468DF83430069B0A930E
:1019B000DDE9042303F09CFB2AE7D3F8E02042B1E1
:1019C0002B68BA1AFA2B38BFFA230533B2EB430F50
:1019D000C0D3FFF7C1FB0028BCD1BEE7AFF3008046
:1019E000F1C6A7C1D068080F000000000000000089
:1019F000401DA12026812A0BB8340020383A00204F
:101A0000B4340020B1340020B0340020303A00203B
:101A100000350020A0240020343A00200010025895
:101A200010B5044601F09EFC204610BD10B50948D3
:101A3000094C01F0A3FF094A002009490AF012FEEF
:101A4000204602F093FC2046044A0649BDE81040B7
:101A50000AF008BE383A0020E8340020AC610020CB
:101A600099130008B90F0008704700007047000084
:101A7000704700002DE9F04100F580370446164616
:101A80003B7C5BB9C0681030204400F079FFE5680A
:101A90003544B5F5004FE56002D816B1BDE8F081D8
:101AA000DEB905F07F0605F110000021C6F18006C1
:101AB0002044F6B232462E4400F088FFA06804F1BC
:101AC0001008324600F10060414600F5003008F091
:101AD000B5FD30B901233B74E0E74FF400463546CD
:101AE000ECE7A26805F11001404632442144A260AF
:101AF000E268521BE26000F043FF0220BDE8F041C3
:101B000000F024BF183000F0E9BC000010B5044616
:101B100001F028FC204610BD10B5044601F022FC5F
:101B2000204610BDC0B2A0F14103052B02D83738C2
:101B3000C0B27047A0F16103052B94BF573830380D
:101B4000F6E7000070B504461546084603220C4926
:101B500000F020FF014688B908346E1C15F9110009
:101B6000FFF7E0FF024616F911000131FFF7DAFF37
:101B7000102940EA021004F8010BEFD170BD00BF3C
:101B800090C700082DE9F04FADF53F7D074641684D
:101B900001222AA805F048FB002840F0878006466D
:101BA000824681461125DFF80C81DFF80CB101ABCC
:101BB0004FF4805241462AA805F096FC002875D1C2
:101BC000019AB2F5805F71D8002A65D00446019A67
:101BD0009442ECD2282D0FD008DC132D2DD01E2DD1
:101BE00039D0112D13D00134A4B2F0E7322D2DD00D
:101BF000372D2FD02D2DF6D13B68121B08EB040199
:101C000038461B692D259847BDF80440EBE7121BA9
:101C1000022A09D9594608EB040000F0BBFE18B9A6
:101C200002342825A4B2DEE718F804303A2B3DD060
:101C30000A2B1CBFA1461325D5E718F804300A2B40
:101C400034D03A2B04BFA2463225CCE718F8043032
:101C5000202BC8D0264618F804300A2B1AD1AAEB3C
:101C6000090208EB090102A811254F2A28BF4F22BB
:101C70000AF06EFDA21B08EB060116A84F2A28BF2A
:101C80004F220AF065FD3B6816AA02A9DB683846B8
:101C90009847A8E71E25A6E73B68384604491B6914
:101CA000984701200DF53F7DBDE8F08F0020F9E752
:101CB0006CC80008084F002094C7000800F1180104
:101CC00010B5044686B00846019100F0F1FB2046AD
:101CD000FFF758FF60B1019902A800F049FC1022FB
:101CE00004F1080102A80AF0D1FCB0FA80F0400922
:101CF00006B010BD70B504460025EEB2304600F0C7
:101D000099FD58B100213046013500F0ABFD08B90E
:101D1000002070BD022000F019FEEEE72046FFF71C
:101D200031FF0028F4D004F58034207C80F00100DD
:101D3000EFE70000F0B5C9B008F04AFF02F03AFB47
:101D400018B90025284649B0F0BD69462A4805F073
:101D50008DFC00284BD1294C204605F0B7FC2848C3
:101D600005F0B4FC274805F0B1FC2146224805F0F7
:101D700029FD0028E5D1702001F0EEFA064610B1E9
:101D8000214B44600360336830469B6898470546A2
:101D900000282ED01A4F1948394605F013FD054684
:101DA0000028CED1194801F0D7FA044638B1184BB3
:101DB0004760036000F58033C0E902551D74236855
:101DC00020469B689847054628B10E490C4805F007
:101DD000F9FC0028B5D1336830465B6898471CB1E0
:101DE000236820465B68984702F0CCFAAAE70025F2
:101DF000FAE70446EFE700BF98C70008A8C7000845
:101E0000BFC70008D5C70008F8C7000814000100C4
:101E100014C800082DE9F04FD44A8DB00B68D0F8F3
:101E200004A001931A440368D14E1A44D1F81C90BF
:101E3000DFF8B4C3DFF8B4B3D0E90234634003EA97
:101E40000A03634013444A6802920AEB7363029CDC
:101E5000C84A2244C468224484688AEA04051D40B2
:101E6000654015448A68039203EB3555039CC24ACA
:101E70002244846822448AEA03042C4084EA0A0447
:101E80001444CA6805EBF4340492164483EA05024C
:101E9000224056445A4032440E69059604EBB22261
:101EA000059FB64E3E441E4485EA040313406B4032
:101EB00033444E69069602EB7363069FB04E3E4470
:101EC0002E4484EA02051D40654035448E6907961C
:101ED00003EB3555079FAB4E3E44264482EA03048C
:101EE0002C4054403444A84E4E4405EBF434164480
:101EF00083EA050222405A4032440E6A089604EBF7
:101F0000B222089FA14E3E441E4485EA04031340BA
:101F10006B4033444E6A099602EB7363099F9C4EF3
:101F2000D1F830E03E44D1F83880F3442E4484EABE
:101F300002051D40654035448E6AA6F5244703EB33
:101F400035550A964F3F274482EA03042C405440FB
:101F50003C44CF6A0B9705EBF4340B9E8D4F37440E
:101F6000029E174483EA050222405A403A448A4FAF
:101F7000774404EBB2221F4485EA040313406B400C
:101F80003B444F6BBC4402EB7363654484EA020C30
:101F90000CEA030C8CEA040C6544DFF854C2C44418
:101FA00003EB3555A44482EA03042C4054406444B6
:101FB000D1F83CC0794905EBF4346144114483EA1B
:101FC000050222405A400A44754904EBB2223144CA
:101FD000079E194484EA02032B4063400B44714975
:101FE00002EBF36331440B9E0D4482EA030121406E
:101FF000514029446C4D03EBF1513544019E254479
:1020000083EA010414405C402C44684D01EBB44465
:102010003544069E154481EA04021A404A402A4487
:10202000634D04EB323235440A9E1D4484EA0203B8
:102030000B4063402B445F4D02EBF3633544059E38
:102040000D4482EA03012140514029445A4D03EBDB
:10205000F1516544254483EA010414405C402C445A
:10206000564D01EBB4443544099E154481EA0402FF
:102070001A404A402A44524D04EB32323544049E01
:102080001D4484EA02030B4063402B444D4D02EB98
:10209000F36345440D4482EA030121405140294441
:1020A000494D03EBF1513544089E2C4483EA010568
:1020B00015405D402C44454D01EBB4443544039E2E
:1020C0002A4481EA04051D404D402A44404D04EB5A
:1020D00032323D442B4484EA020593440D4065406E
:1020E0002B443C4D02EBF3633544069E294482EABF
:1020F0000305254055402944374D03EBF1514D442C
:102100002C4483EA010515405D40254401EBB545AB
:1021100081EA050404EA03024A405A44A6F5B82BB2
:10212000089E05EB3232ABF2BE6B54405B44234455
:102130002A4C344402EB33730B9E0C4485EA0201B3
:1021400059402144264C344403EB7151029E2544EE
:1021500082EA03044C402544224C444401EB3545BB
:10216000144483EA01026A40224443E078A46AD717
:10217000EECEBDC156B7C7E8DB702024AF0F7CF5AB
:102180002AC68747134630A8019546FDD89880692E
:10219000AFF7448BBED75C892211906B2108B449FC
:1021A00062251EF640B340C0515A5E26AAC7B6E962
:1021B0005D102FD65314440281E6A1D8C8FBD3E7A3
:1021C000E6CDE121D60737C3870DD5F4ED145A4586
:1021D00005E9E3A9F8A3EFFCD9026F6781F67187DF
:1021E00022619D6D0C38E5FD937198FD8A4C2A8D16
:1021F0008E4379A6934C344405EB7222059E1C4411
:1022000081EA0503534023448F4C344402EB33737B
:102210000A9E0C4485EA0201594021448B4C4C44EF
:1022200003EB7151254482EA03044C402C44884D51
:10223000354401EB3444019E154483EA01026240B7
:102240002A44844D3D4404EB72221D4481EA040378
:1022500053402B44804D354402EB3373049E294494
:1022600084EA02055D4029447C4D354403EB7151FD
:10227000079E254482EA03044C402C44784D3544A3
:1022800001EB3444099E2A4483EA01056540154464
:10229000744A324404EB7525039E134481EA040218
:1022A0006A401A44704B734405EB32720B4484EA63
:1022B0000501514019446D4B634402EB71511C44BC
:1022C00085EA02034B401C44694B334401EB344420
:1022D000019E1D4482EA010363402B44654D04EBDB
:1022E00073233544069E154463EA010262402A4482
:1022F000614D03EBB2624D4462EA040929445F4D2B
:1023000089EA0309454449442C445D4D02EBB1512F
:102310003544049E61EA03081D4488EA02084444E7
:1023200001EB744464EA02034B402B44554D04EB2B
:10233000F323754463EA010E15448EEA040E0EEB96
:102340000502514D03EBB262354462EA040E2944A2
:102350000A9D8EEA030EA5F580164C4D7144A6F633
:10236000833602EBB151264461EA030454403444FD
:10237000029E01EB7444354464EA02061D444E405B
:102380007319089E424D04EBF323354463EA0106BA
:102390001544664072193F4D03EBB262654462EA30
:1023A000040629443C4D5E403144079E02EBB15186
:1023B000354461EA03062C44384D56403D443444CC
:1023C000059E1D4401EB744464EA02034B402B4418
:1023D000334D04EBF32335440B9E154463EA0102AD
:1023E00062402A442F4D03EBB2623544039E0D44F4
:1023F00062EA0401594029442B4D02EBB1513544A6
:102400002A4E254461EA030454402C44099D01EB03
:1024100074442E4464EA02051E4485EA01039D19B2
:1024200003681A440AEB040303EBF52302604360DC
:1024300083681C44C36819448460C1600DB0BDE862
:10244000F08F00BF44EABEA4A9CFDE4B604BBBF6C1
:1024500070BCBFBEC67E9B28FA27A1EA8530EFD4A8
:10246000051D880439D0D4D9E599DBE6F87CA21F94
:102470006556ACC4442229F497FF2A43A72394ABA2
:1024800039A093FCC3595B6592CC0C8FD15D8485D8
:102490004F7EA86FE0E62CFE144301A3A111084E65
:1024A000827E53F735F23ABDBBD2D72A91D386EB61
:1024B000094B036003F18833436003F12943A3F51B
:1024C0009613A3F68B638360A3F18833C360002364
:1024D000C0E90433704700BF012345672DE9F84385
:1024E0001446026905460E46E300C2F3C50800F132
:1024F00018079B18036122BF43690133436112F43B
:10250000FC7F436903EB5473436114D0C8F1400965
:1025100007EB08004C4504D22246BDE8F8430AF018
:10252000E7B8403C4A464E440AF0E2F84444394693
:102530002846FFF76FFCA04606EB0409B8F13F0FF1
:10254000A9EB08010AD9402238460AF0D1F83946E9
:102550002846A8F14008FFF75DFCEFE7A1096FF0FE
:102560003F02384602FB014206EB8111D5E700002D
:1025700070B50B6901F1180506460C46C3F3C50397
:10258000EA18501C8022EA54C3F13F02072A1FD8E0
:10259000002100F01BFA29462046FFF73BFC3822B9
:1025A0000021284600F012FA2369294620462365B7
:1025B00063696365FFF72EFC2146102230460AF05E
:1025C00097F8204658220021BDE8704000F0FEB97F
:1025D000C3F137020021E5E72DE9F84F4FF47A7394
:1025E00006460D46002402FB03F7DFF85080DFF8B3
:1025F000509098F900305FFA84FA5A1C01D0A34237
:1026000012D159F824002A4631460368D3F820B085
:102610003B46D847854207D1074B012083F800A0ED
:10262000BDE8F88F0124E4E7002CFBD04FF4FA70EA
:1026300007F02CFB0020F3E74C5F0020182300205C
:102640001C23002000232DE9F0471A460546884642
:102650000120194605F088FC0446802008F00CF99A
:102660000746002861D0002C5FD03B4E28464FF033
:10267000800A736943F0C0637361D6F8143143F084
:10268000C063C6F8143107F079FF05EB080200FBC0
:1026900005F34FF4D06C50434FF03D0E834233D2DC
:1026A0003269520143D4D6F8102151013FD4216838
:1026B00003F100628A602268D7602268C2F804A031
:1026C0002268C2F800C0D4F80090D9F8002042F087
:1026D0000102C9F80020D4F80090D9F8002022F0B7
:1026E0001E02C9F80020D4F80090D9F80020D207C3
:1026F000FBD494F80C90803361680EFA09F20A60FA
:10270000CCE7002008F018F8204605F06DFC3846AC
:1027100008F0EEF8104B5A6942F0C0625A61D3F8E3
:10272000142142F0C062C3F81421BDE8F0870B4BBE
:102730009A6A42F400729A629A6A42F400429A6279
:1027400061B60026012007F0F7FFB045D9D9A819D6
:10275000013607F02BFFF8E70020005200ED00E003
:10276000002307B5024601210DF107008DF807305F
:10277000FFF732FF20B19DF8070003B05DF804FBBE
:102780004FF0FF30F9E700000A46042108B5FFF7D3
:1027900023FF80F00100C0B2404208BD074B0A464B
:1027A00030B41978064B53F821400146236820467F
:1027B000DD69044BAC4630BC604700BF4C5F002075
:1027C0001C230020A086010070B5104C0025104E7F
:1027D00007F0D8FE20803068238883420CD800257B
:1027E0002088013807F0CAFE23880544013BB5F56F
:1027F000802F2380F4D370BD07F0C0FE33680544FA
:102800000133B5F5003F3360E5D3E8E74E5F0020C4
:10281000085F002007F090BF00F1006000F5003075
:102820000068704700F10060920000F5003007F08A
:1028300005BF0000054B1A68054B1B889B1A834295
:1028400002D9104407F09ABE00207047085F0020AC
:102850004E5F0020024B1B68184407F095BE00BF76
:10286000085F0020024B1B68184407F09FBE00BFA2
:10287000085F00200020704700F1FF5000F58F1026
:10288000D0F8000870470000064991F8243033B1B1
:1028900000230822086A81F82430FFF7C3BF012013
:1028A000704700BF0C5F0020014B1868704700BFE5
:1028B0000010005C194B01380322084470B51D68F4
:1028C000174BC5F30B042D0C1E88A6420BD15C6878
:1028D0000A46013C824213460FD214F9016F4EB1F1
:1028E00002F8016BF6E7013A03F10803ECD18142EB
:1028F0000B4602D22C2203F8012B0424094A168825
:10290000AE4204D1984284BF967803F8016B013C33
:1029100002F10402F3D1581A70BD00BF0010005C30
:102920002423002054C80008022803D1024B4FF48E
:1029300000229A61704700BF00100258022802D19D
:10294000014B08229A61704700100258022804D1F6
:10295000024A536983F0080353617047001002581C
:1029600070B504464FF47A764CB1412C254628BF09
:10297000412506FB05F0641B07F088F9F4E770BDFC
:10298000002310B5934203D0CC5CC4540133F9E763
:1029900010BD0000013810B510F9013F3BB191F9AD
:1029A00000409C4203D11AB10131013AF4E71AB157
:1029B00091F90020981A10BD1046FCE70346024624
:1029C000D01A12F9011B0029FAD1704702440346BC
:1029D000934202D003F8011BFAE770472DE9F84350
:1029E0001F4D14460746884695F8242052BBDFF851
:1029F00070909CB395F824302BB92022FF214846D3
:102A00002F62FFF7E3FF95F824004146C0F108026A
:102A100005EB8000A24228BF2246D6B29200FFF703
:102A2000AFFF95F82430A41B17441E449044E4B231
:102A3000F6B2082E85F82460DBD1FFF725FF0028C9
:102A4000D7D108E02B6A03EB82038342CFD0FFF794
:102A50001BFF0028CBD10020BDE8F8830120FBE755
:102A60000C5F0020024B1A78024B1A70704700BFAF
:102A70004C5F00201823002038B51A4C1A4D204610
:102A800006F058FB2946204606F080FB2D684FF4DF
:102A90007A70D5F89020D2F8043843F00203C2F8D7
:102AA0000438FFF75DFF1149284606F07DFCD5F894
:102AB00090200F4DD2F80438286823F002030D4906
:102AC000A042C2F804384FF4E1330B6001D006F0A5
:102AD0008FFA6868A04204D00649BDE8384006F085
:102AE00087BA38BDB86B002028D1000830D1000863
:102AF0001C230020345F00200C4B70B50C4D0446A5
:102B00001E780C4B55F826209A420DD00A4B002116
:102B100018221846FFF75AFF0460014655F82600B0
:102B2000BDE8704006F064BA70BD00BF4C5F002085
:102B30001C230020B86B0020345F002008B571B65C
:102B4000054B1988054B1888FFF77CFD02210E20E4
:102B5000FFF778FD61B608BD4E5F0020085F0020DA
:102B60002DE9F3470D46044600219046284640F2E1
:102B70007912FFF72BFF234620220021284604F17B
:102B8000220702F057FA231D022220212846C026E0
:102B900002F050FA631D03222221284602F04AFA6D
:102BA000A31D03222521284602F044FA04F108035C
:102BB00010222821284602F03DFA04F110030822D1
:102BC0003821284602F036FA04F111030822402188
:102BD000284602F02FFA04F1120308224821284661
:102BE00002F028FA04F1140320225021284602F0B2
:102BF00021FA04F1180340227021284602F01AFA43
:102C000004F120030822B021284602F013FA04F14F
:102C100021030822B821284602F00CFA3146083672
:102C20003B4608222846013702F004FAB6F5A07F99
:102C3000F4D194F83230314604F1330A00268DF88D
:102C4000073008220DF10703284602F0F3F99DF83A
:102C500007304FEAC6099E4209F5A47720D394F8BD
:102C60003231502B28BF50238DF80730B8F1000FB8
:102C700008D1394609F24F170DF1070307222846FC
:102C800002F0D8F9002604F233149DF8073007EB60
:102C9000C6019E420DD30731C80802B0BDE8F087D7
:102CA0000AEB0603082239462846013602F0C2F92B
:102CB000CDE7A31908222846013602F0BBF9E4E764
:102CC00013B50446084600212022234601900160E6
:102CD000C0F8031002F0AEF9231D01980222202152
:102CE00002F0A8F9631D01980322222102F0A2F943
:102CF000A31D01980322252102F09CF9019804F1FB
:102D000008031022282102F095F9072002B010BD17
:102D1000F7B5047F05460E462CB1838A122B02D9E3
:102D2000012003B0F0BD0023072228460096194673
:102D300002F044F8731C0122072100932846002367
:102D400002F03CF8D4B9B31C0522082128460093B0
:102D500023460D2402F032F8B378102BE0D8374622
:102D6000BB1BB278934210D307342B7FA88AE408A8
:102D7000B3B9844294BF00200120D2E7AB8A082473
:102D8000DB00083BDB08B370E6E7FB1C21460822AA
:102D90002846009300230834013702F00FF8DFE7DC
:102DA000201A18BF0120BCE7F7B5047F05460E4680
:102DB0002CB1838ACA2B02D9012003B0F0BD0023B5
:102DC000082228460096194601F0F8FF731CD4B972
:102DD00008220093234610241146284601F0EEFFF6
:102DE0007378C82BE8D801235F1C7278013B9342AB
:102DF00010D307342B7FA88AE408B3B9844294BF68
:102E000000200120D9E7AB8A0824DB00083BDB085F
:102E10007370E5E7F3192146082228460093002342
:102E200001F0CCFF08343B46DEE7201A18BF012032
:102E3000C3E70000F7B50D460446002116462846B4
:102E40008122FFF7C3FD234608220021284602F015
:102E5000F1F894F901206378002AB8BF7F238DF838
:102E600007309EB90F270DF10703072208212846D6
:102E700002F0E0F8002602349DF8073007EBC601A7
:102E80009E4205D30731C80803B0F0BD0827F1E71B
:102E9000A31908222846013602F0CCF8ECE700001E
:102EA000F7B50E460546002114463046CE22FFF700
:102EB0008DFD2B4628220021304602F0BBF82B7AEC
:102EC000C82B28BFC8238DF807308CB930240DF1EA
:102ED000070308222821304602F0ACF82F467B1B5E
:102EE0009DF80720934205D3E01DC00803B0F0BD54
:102EF0002824F3E707F10903214608223046083465
:102F0000013702F097F8EAE7F7B5047F05460E4669
:102F100034B1838AB3F5827F02D9012003B0F0BDBA
:102F20000123102200212846009601F047FFDCB95A
:102F3000B31C09221021284600932346192401F0CE
:102F40003DFF7388B3F5807FE7D83746BB1B728897
:102F5000934210D307342B7FA88AE408B3B9844284
:102F600094BF00200120D9E7AB8A1024DB00103B7E
:102F7000DB087380E5E73B1D2146082228460093C5
:102F800000230834013701F019FFDFE7201A18BFCA
:102F90000120C3E730B50A44084D91420DD011F825
:102FA000013B5840082340F30004013B2C4013F040
:102FB000FF0384EA5000F6D1EFE730BD2083B8ED7F
:102FC000F7B5384A6B46106851686A4603C3082350
:102FD0003549364809F06AFB0446002833D10A25F2
:102FE000334A6B46106851686A4603C30823314967
:102FF0002E4809F05BFB0446002849D00369B3F56D
:10300000F01F45D8B0F8661040F69C7291423FD14F
:10301000294A024402F15C018B4239D35C3B2349CB
:1030200000209E1AFFF7B6FF04F1640107463246FE
:103030000020FFF7AFFFA3689F4229D1E3689842C1
:1030400008BF002524E00369B3F5F01F27D8418BA2
:1030500040F69C72914220D1174A024402F11001BD
:103060008B4218D3103B114900209D1AFFF792FFA5
:1030700004F1180106462A460020FFF78BFFA368DB
:103080009E4202D1E368984201D00D25A8E70025B1
:10309000284603B0F0BD1025A2E70C25A0E70B25BC
:1030A0009EE700BF64C80008DCFF1D0000000208A6
:1030B0006DC8000890FF1D000800FEF710B50B68F2
:1030C000044608469B6821609847204610BD0000D2
:1030D00010B5044600680368DB689847204610BDB9
:1030E00010B5037C044613B9006807F001FC2046C4
:1030F00010BD00000023BFF35B8FC360BFF35B8F85
:10310000BFF35B8F8360BFF35B8F7047BFF35B8F51
:103110000068BFF35B8F704770B505460C30FFF752
:10312000F5FF044605F108063046FFF7EFFFA04221
:1031300006D96D683046FFF7E9FF2544281A70BDAF
:103140003046FFF7E3FF201AF9E7000070B50546A7
:103150004068A0B105F10C0605F10800FFF7D6FFA5
:1031600004463046FFF7D2FF844204F1FF34304674
:1031700094BF6D680025FFF7C9FF2C44201A70BD6D
:1031800038B50C460546FFF7C7FFA04210D305F13E
:103190000800FFF7BBFF04446868BFF35B8FB4FB14
:1031A000F0F100FB11440120AC60BFF35B8F38BD30
:1031B0000020FCE72DE9F041144607460D46FFF7D5
:1031C000C5FF844228BF0446D4B1B84658F80C6BFA
:1031D0004046FFF79BFF3044286040467E68FFF77B
:1031E00095FF331A9C4203D801206C60BDE8F08142
:1031F000A41B6B603B682044AB60E8600220F5E7ED
:103200002046F3E738B50C460546FFF79FFFA0427E
:1032100010D305F10C00FFF779FF04446868BFF391
:103220005B8FB4FBF0F100FB11440120EC60BFF3B5
:103230005B8F38BD0020FCE72DE9FF4188466946D9
:1032400007466C46FFF7B6FF002506B204EBC6063C
:10325000B4420AD0626808EB050120680834FFF721
:103260008FFB54F8043C1D44F2E729463846FFF72B
:10327000C9FF284604B0BDE8F0810000F8B5054656
:103280000C300F46FFF742FF05F1080604463046B2
:10329000FFF73CFFA042304688BF6C68FFF736FF5F
:1032A000201A386020B12C683046FFF72FFF2044E9
:1032B000F8BD000073B5144606460D46FFF72CFF17
:1032C0008442019028BF0446DCB101A93046FFF7D3
:1032D000D5FF019B33B93268C5E90233C5E9002443
:1032E00001200CE09C42286038BF01940198844280
:1032F0006860F5D93368241A0220AB60EC6002B034
:1033000070BD2046FBE700002DE9FF410F466946EE
:103310006C46FFF7CFFF00B2002604EBC005AC42BD
:1033200009D0D4F80480B81954F8081B4246464422
:10333000FFF726FBF3E7304604B0BDE8F08100005C
:1033400038B50546FFF7E0FF044601462846FFF77B
:1033500017FF204638BD00000121884238BF0846CB
:1033600007F0C2BA08B107F0C3BA7047704700004F
:1033700010B41346026814680022A4465DF8044B9A
:103380006047000000F5805090F869047047000025
:1033900000F5805090F862047047000000F58050FE
:1033A00090F96804704700004E207047302383F383
:1033B000118800F58052D2F8AC34D2F8A804184431
:1033C000D2F8A4341844D2F88C341844D2F89C347F
:1033D0001844D2F898341844002383F311887047B6
:1033E00000F58050C0F86414012070472DE9FF47B4
:1033F0000C4600F580510546BDF8308091F8620416
:1034000098B1D1F888040130C1F88804206886009A
:1034100006D4207B08280BD9667B0EB10F2807D96C
:10342000D1F88C340133C1F88C344FF0FF30A9E06F
:10343000302080F31188E86BD0F8C47017F40017BF
:1034400013D0D1F890040130C1F89004D1F894144D
:10345000002940F09A8021462846CDF8008001F0EE
:1034600071F8002383F311888CE0D0F8C4604FF02A
:103470004809686BC6F3044619FB060920684FEA41
:10348000461A0028B4BF40F0804C4FEA804CC9F87F
:1034900000C02068400044BF4CF00050C9F8000054
:1034A000300694F80CC040EA0C40C9F8040094F8C7
:1034B0000DC0BCF1000F26D040F44010C9F8040044
:1034C000D1F8C0040130C1F8C00405EB0A0101F5D0
:1034D0008351087F40F020000877207BCDE902234C
:1034E00001F088F80330DDE902238010F9B20137DA
:1034F000814210DA04EB810C09EB8101DCF804C095
:10350000C1F808C0F2E705EB0A0101F58351087F15
:103510006CF34510E0E70120E96B04F10C07B040C3
:10352000C1F8D00006F18301204605EB4111C1E945
:10353000002305EB461101F58351083150F804CB07
:10354000B84241F804CBF9D10088AA44088041F27E
:1035500078014AF801600AF5805A08F003019AF8E8
:103560007C0041F0100120F01F0001438AF87C101C
:10357000002181F3118821462846CDF8008000F013
:10358000E1FF012004B0BDE8F087002069E70000FA
:103590002DE9F04700F58056044696F86254002D58
:1035A00040F0048190F82030032B40F094802846AE
:1035B0002B462F465FFA80FC944510DA01EBCC0EC7
:1035C00051F83CC0BCF1000F04DBDEF804C0BCF1D4
:1035D000000F02DB01370130ECE70133FBE730205D
:1035E00080F31188E06BF3B9D0F8803043F0020328
:1035F000C0F880304E23E06B002F6FD1D0F88030C0
:1036000043F00103C0F88030694B6A4A1B6803F13C
:10361000805303F52C539B009342A36340F2B08088
:10362000654800F039FF4D2B42D8DFF884814FEA1E
:10363000034EDFF88891D8F800C04EEA8C0EC0F82F
:1036400084E00CF1805000F52C508000606203EBA8
:103650000C00D4F83CC0C3F14E03C8F80000DCF8FD
:10366000800040F03000CCF880004FF0000CD4F81F
:103670002480E6465FFA8CF08242BCDD01EBC00A92
:1036800051F83000002810DBDAF804A0BAF1000F7E
:103690000BDA09EA00400AF07F0A40EA0A0040F02B
:1036A000084048F82E000EF1010E0CF1010CE1E784
:1036B000836923F00103836100F0F4FE0646E36BA7
:1036C0009B69D90704D500F0EDFE831BFA2BF6D9D0
:1036D000002383F311882846BDE8F087B7EB530F2A
:1036E0003DD2DFF8CCE04FEA074CDEF800304CEA80
:1036F000830CC0F888C003F1805003EB4703002718
:1037000000F52C50CEF80030BC468000A062E06B83
:10371000D0F8803043F00C03C0F88030D4F828E0B3
:10372000FBB29A427FF770AF51F8330001EBC30848
:103730000028D8F8043001DB002B0EDB20F06040BD
:1037400023F0604340F0005043F000434EF83C004B
:103750000EEBCC000CF1010C43600137E0E783690C
:1037600023F00103836100F09DFE0646E36B9B6935
:10377000DA07ADD500F096FE831BFA2BF6D9A7E742
:10378000E26B936923F00103936100F08BFE07461F
:10379000E36B9B69DB0705D500F084FEC31BFA2BA6
:1037A000F6D995E7012586F8625491E7002592E75E
:1037B000585F0020FCB5004078C800080000FF07F3
:1037C00013B500F580540191606DFFF7BFFC1F2811
:1037D0000AD920220199606DFFF72EFDA0F1200388
:1037E0005842584102B010BD0020FBE708B5302315
:1037F00083F3118800F58050406DFFF77BFC0023B8
:1038000083F3118808BD00000022026082814260BB
:10381000826070470022002310B5C0E90023002316
:1038200004460C3020F8043CFFF7EEFF204610BDA4
:103830002DE9F0479A4688B00746884691463023DE
:1038400083F3118807F580546846FFF7E3FF606D46
:10385000FFF762FC1F282ED920226946606DFFF712
:103860006FFD202827D194F8623423B303AD44467A
:1038700005AB2E46083403CE9E4244F8080C44F8AB
:10388000041C3546F5D130682060B388A380DDE99B
:103890000023C9E90023BDF80830AAF8003000234E
:1038A00083F3118853464A464146384608B0BDE87E
:1038B000F04700F005BE002080F3118808B0BDE895
:1038C000F08700002DE9F84F0646884618220021AF
:1038D00004303546FFF77AF8254B06F5825745F850
:1038E000403B2C4620462034FFF794FFA742F9D1F5
:1038F00006F580544FF4805306F5A4594FF0000AA2
:103900002564002567654FF0000B06F58457E564D4
:10391000C4E91135012384F8503084F85830A7F1F8
:103920001800203747E910ABFFF76EFF47F8285C17
:103930004F45F4D184F86884A4F86A54A4F86C5410
:10394000A4F86E5484F87054A4F87254A4F8745413
:10395000A4F8765484F87854B8F1000F02D00548E2
:1039600000F09AFD044B3046F363BDE8F88F00BFCA
:10397000B8C800089CC8000800A00040044B10B55F
:10398000197804464A1C1A70FFF79CFF204610BDA8
:10399000555F00202DE9F04300295AD02E4E2F48C4
:1039A000B6FBF1F481428CBF0A201120431EB4FB08
:1039B000F0F700FB1740DDB220B1022B1846F5D816
:1039C000002032E07B1EB3F5806F2ED2C5EBC50818
:1039D0004FF47A7308F103044FEAE40EC4F3C7040A
:1039E0000EF10109281B0EFB033E5FFA80FC59FA19
:1039F00080F0BEFBF0F0B0F5617F18DC83B2601C94
:103A00005CFA80F07843B6FBF0F08142D8D1611EB9
:103A10000F29D5D80CF1FF310729D1D80120138007
:103A200057801071547182F806C0BDE8F08308F128
:103A3000FF34E010C4F3C70400F1010E2D1B00FB9E
:103A400003335FFA85FC5EFA85F5B3FBF5F39BB2B1
:103A5000D5E70846E9E700BF00B4C4043F420F00C1
:103A600030B50D4B05200D4D1C786C438C420ED1AA
:103A700059780120518099785171D97891711979CB
:103A800011715B7903EB83035B00138030BD013858
:103A900003F10603E8D1F9E7FCC8000840420F0033
:103AA00038B540F27772C36B154CC3F8BC200722BF
:103AB000C36BC3F8C8202268C16B930043F4C023D2
:103AC000C1F8A03002F1805302F16C01C56B03F51F
:103AD0002C53EA3289009B00226041F0E061094AE0
:103AE000C362C5F8C01003F5D87103F56A7341636A
:103AF0009342836302D9044800F0CEFC38BD00BF76
:103B0000585F0020FCB5004078C800082DE9F04758
:103B100000F580551F4688B0044695F868348946FC
:103B20009046012B04D90026304608B0BDE8F08746
:103B30009F4A52F8231009B942F823009D48C4F85F
:103B40001C90017884F82070C9B9302383F3118860
:103B5000994BD3F8EC2042F48072C3F8EC20D3F8F0
:103B6000942042F48072C3F89420D3F8942022F475
:103B70008072C3F894200123037081F3118895F8B3
:103B800061647EB9302383F311880321132004F08C
:103B900041FE0321152004F03DFE012385F8613428
:103BA00086F31188302383F31188E26B936923F045
:103BB0001003936100F076FC8246E36B9E6916F079
:103BC000080609D000F06EFCA0EB0A03FA2BF4D92A
:103BD000002686F31188A7E79A6942F001029A61EC
:103BE00000F060FC8246E36B9A69D00706D400F0CF
:103BF00059FCA0EB0A03FA2BF5D9E9E79A694FF0D3
:103C0000000A42F002029A61E36BC3F854A08AF3FF
:103C10001188686DFFF76EFA202200216846FEF7D2
:103C2000D5FE02A8FFF7F0FD04F583536A460DF1B7
:103C3000180E3344CDF818A094460833BCE80300AE
:103C4000F44543F8080C43F8041C6246F4D1DCF850
:103C5000000020361860B6F5806F9CF804201A71B9
:103C6000DAD1002304F5A352494620460A3285F8EA
:103C7000603485F86334FFF78DFE064690B9E26B39
:103C8000936923F00103936100F00CFC0546E36B9C
:103C90009B69D9077FF547AF00F004FC431BFA2B63
:103CA000F5D940E795F86E34C5F87C94591E95F81F
:103CB0006F34E26B013B1B0243EA416395F87014D9
:103CC00001390B43B5F86C14013943EA0143D36160
:103CD000B8F1000F36D004F5A35241462046123207
:103CE000FFF7BEFE90B9E26B936923F00103936185
:103CF00000F0D8FB0546E36B9B69DA077FF513AF4D
:103D000000F0D0FB431BFA2BF5D90CE795F877248C
:103D1000C5F88084511E95F87824E36B013A1201AE
:103D200042EA012295F8761401390A43B5F8741471
:103D3000013942EA014242F40002DA604FF42062A3
:103D4000E36B9A64E36B4FF000082046C3F8BC8035
:103D5000FFF7A6FE85F869846FF04042E36B1A65B1
:103D6000164AE36B5A654FF00222E36B9A654FF0F7
:103D7000FF32E36BC3F8E0200322E36B9742DA657E
:103D80003FF4D2AEE26B936923F00103936100F03C
:103D900089FB0746E36B9B69DB0705D500F082FBD7
:103DA000C31BFA2BF6D9BEE6012385F86234BBE6C5
:103DB000505F0020545F002000440258550200026A
:103DC0002DE9F04F00F5A5578BB005469046994672
:103DD0004FF0000B41F2780A1037EB6BD3F8D83074
:103DE00023FA0BF3DC0753D505EB4B114FEA4B12CB
:103DF00051440B7918074BD405F58056D6F8943406
:103E00000133C6F89434C7E900890B79990605EBAC
:103E1000020148BFD6F8C434514444BF0133C6F848
:103E2000C4340B7943F008030B71DB0725D596F8F2
:103E3000633413B305F5835402A80192FFF7EAFC3B
:103E40000834019A05AB144404F1080C20680834C6
:103E500054F8041C1A46644503C21346F6D1206880
:103E600002A910602846A2889A800123ADF810307C
:103E70002B68CDE902891B6C9847D6F8B834D6F880
:103E800064040133C6F8B83410B103681B6998475D
:103E90000BF1010BBBF1200F9FD10BB0BDE8F08FF0
:103EA0002DE9F04F0F468DB0044600F0FDFA824632
:103EB0008946002F5BD1E36BD3F8A02012F4FE0FEC
:103EC00003D100200DB0BDE8F08FD3F8A4209201FB
:103ED00041BF04F58051D1F8A8240132C1F8A824CB
:103EE000D3F8A4205606ECD0D3F8A450E66AC5F364
:103EF00005254823E8464FF0000B03FB05664046C6
:103F0000FFF782FC326851004ABF22F06043C2F3DF
:103F10008A4343F00043920048BF43F0804300933C
:103F2000736813F400131BBF012304F580528DF84E
:103F30000D308DF80D301EBFD2F8C8340133C2F8F1
:103F4000C834F38803F00F038DF80C309DF80C0093
:103F500000F050FB5FFA8BF3984225D9F2180CA9B8
:103F60000BF1010B127A0B4403F82C2CEEE7012F16
:103F7000A7D1E36BD3F8B02012F4FE0FA1D0D3F891
:103F8000B420950141BF04F58051D1F8A824013235
:103F9000C1F8A824D3F8B420500692D0D3F8B45076
:103FA000266BC5F30525A4E7EFB9E36BC3F8A8506A
:103FB00004A807ADFFF72EFC98E80F0007C52B807B
:103FC0000023204604A9ADF81830236804F5805476
:103FD0001B6CCDE904A9984758B1D4F8A03401333B
:103FE000C4F8A0346EE7012FE2D1E36BC3F8B850F8
:103FF000DEE7D4F8A43401200133C4F8A43461E727
:104000002DE9F04105460F4600F58054012639465A
:104010002846FFF745FF10B184F86364F7E7D4F84A
:10402000B834D4F864040133C4F8B83420B1036858
:10403000BDE8F0411B691847BDE8F081C36BF0B5DE
:104040001A6C12F47F0F2BD01B6C00F5805441F2D8
:1040500078054FF0010CC4F8BC340023471900EB7D
:1040600043125E012A44117911F0020F15D049075D
:1040700013D4B959C66B0CFA01F1D6F8CCE011EAA9
:104080000E0F0AD0C6F8D410117941F00401117155
:10409000D4F89C240132C4F89C240133202BDED1B7
:1040A000F0BD000010B5264C264B22680AB340B381
:1040B0001A6D92050FD54FF400721A6500F0F4F9ED
:1040C00050EA01020B4602D0013861F100030246BA
:1040D0002068FFF775FE1B4A136D9B012AD52368E4
:1040E0004FF0007103F580531165012283F86924B4
:1040F00020E001221A6510221A654FF480521A65D9
:1041000010BD196DC80702D4196D490705D50521E1
:10411000104619650021FFF773FF0A4B1A6DD00690
:1041200002D41A6D510605D5502201211A65206866
:10413000FFF766FF2068BDE81040FFF77FBF00BFB4
:10414000505F002000A0004008B5302383F31188A1
:10415000FFF774FF002383F3118808BDC36BD3F806
:10416000C00010F07C5005D0D3F8C40080F40010DB
:10417000C0F340507047000008B5302383F3118826
:1041800000F58050406DFEF7C7FF002383F31188D0
:1041900043090CBF0120002008BD000000F580533A
:1041A00093F8692462B1C16B8A6922F001028A61C5
:1041B000D3F8AC240132C3F8AC24002283F869247C
:1041C000704700002DE9F743302181F31188002565
:1041D00000F5835141F2780E4FF0010800F5805C44
:1041E00000EB45147444267977071CD4F6061AD5DB
:1041F0008E69D0F83C9008FA06F6D9F8CC703E42A9
:1042000011D04F6801970F689742019F9F410AD2D2
:10421000C9F8D460267946F004062671DCF8984483
:104220000134CCF8984401352031202DD8D1002319
:1042300083F3118803B0BDE8F0830000F8B51E4693
:1042400000230F46054613701446FFF795FF80F0D4
:10425000010038701EB12846FFF780FF2070F8BDBE
:104260002DE9F04F85B099460D468046164691F8E7
:1042700000B0DDE90EA302931378019300F014F966
:104280002B7804460F4613B93378002B41D02246D1
:104290003B464046FFF796FFFFF756FFFFF77EFFCE
:1042A0004B4632462946FFF7C9FF2B7833B1BBF1A5
:1042B000000F03D0012005B0BDE8F08F337813B1B3
:1042C000019B002BF6D108F5805303935445029BC4
:1042D00077EB03031DD2039BD3F86404C8B10368D2
:1042E000AAEB04011B6898474B46324629464046D4
:1042F000FFF7A4FF2B7813B1BBF1000FDAD13378AD
:1043000013B1019B002BD5D100F0CEF804460F4627
:10431000DCE70020CFE7000008B50020FFF7C2FE71
:10432000BDE8084003F00CBC08B50120FFF7BAFE59
:10433000BDE8084003F004BC036800211B6818476F
:10434000043008B505F028FB012008BD10B521B1E7
:104350000368BDE810405B681847043005F0F0FAC8
:10436000012010BD043005F00DBB0000044B10B55A
:10437000044640F8043B05F0A1FA204610BD00BFFA
:1043800024C9000810B5084C01220849002002F099
:1043900027FF23783BB1064804F0A2FD044804F04F
:1043A000D5FD0023237010BD5C5F00203CC90008D0
:1043B000406200201D482DE9F041036D2BB9012218
:1043C0004FF48051503006F02BFC194E33780BB16E
:1043D000FFF7D8FF0324174F4FF00008134D15497E
:1043E0002846C7F8048004F0A3FD284604F0DCFB4F
:1043F00048B1013C284604F0A9FD14F0FF04EED1B9
:10440000204634700FE00C4901220C4802F0E8FE0F
:10441000014618B1284604F063FDEAE7084800F0B9
:1044200011F801203070BDE8F08100BF406200202B
:104430005C5F00203C2300203CC90008605F002036
:1044400040C900080FB4002004B0704700B59BB00D
:10445000EFF3098168226846FEF792FAEFF30583CD
:10446000014B9B6BFEE700BF00ED00E008B5FFF7D6
:10447000EDFF000000B59BB0EFF3098168226846AC
:10448000FEF77EFAEFF30583014B5B6BFEE700BF9F
:1044900000ED00E0FEE700000FB408B5029805F05B
:1044A00077FBFEE706F080BA06F062BA0139C9B2BE
:1044B00002299EBF00EBC1000023C0E90133704711
:1044C0002DE9F8431E461B88054688465B0718D42D
:1044D000044600F118094C4513D063686BB12B6892
:1044E0002846DB6B98473388C1B2A76843F00403C2
:1044F00042466068B8470834EDE7A368002BEED168
:10450000F9E70120BDE8F88373B56C4684E806003E
:10451000014600224E68D5B26EB98E685EB900EBD6
:10452000C2000135021D94E8030082E80300012067
:104530001D7002B070BD01320831032AEAD100209B
:10454000F7E700002DE9F04F2DED028B89B004460E
:104550008B460546BDF8508000F11809002708F089
:10456000040A9FED228BA94537D06B680BB9AB6865
:1045700063B1BAF1000F0BD123682046DB6B98477B
:104580004346C1B25A46D5E90106B0470835EAE7C5
:10459000002FFBD15B4603AA0BF1080CADF80870A5
:1045A0008DED008B1868083353F8041C17466345DB
:1045B00003C73A46F6D1186838609B88BB8001274C
:1045C000FFF772FF0423ADF808302368CDE900013E
:1045D0001B6C694620469847D8E7012009B0BDEC1E
:1045E000028BBDE8F08F00BFAFF300800000000039
:1045F00000000000082817D909280CD00A280CD080
:104600000B280CD00C280CD00D280CD00E2814BF71
:104610004020302070470C20704710207047142035
:104620007047182070472020704700002DE9F041A6
:10463000456A15B94162BDE8F0814B68AC4623F08C
:104640006047C3F38A464FEAD37EC3F3807816EA05
:10465000230638BF3E462B465A68BEEBD27F22F077
:1046600060440AD0002A18DAA40CB44217D19D4243
:104670000FD10D60DEE71346EEE7A74207D102F047
:104680008044C2F3807242450BD054B1EFE708D2A8
:10469000EDE7CCF800100B60CDE7B44201D0B44296
:1046A000E5D81A689C46002AE5D11960C3E70000E6
:1046B0002DE9F047089D01F0070400EBD1004FF40D
:1046C0007F494FEAD508224405F00705944201D1FD
:1046D000BDE8F08704F0070705F0070A111B08EB97
:1046E000D50E57453E4613F80EC038BF5646C6F1A4
:1046F00008068E4228BF0E46E108415C344435442A
:10470000B94029FA06F721FA0AF1FFB28CEA010151
:1047100047FA0AF739408CEA010C03F80EC0D5E7D6
:1047200080EA0120082341F2210201B2013B40004E
:10473000002980B2B8BF504013F0FF03F5D1704795
:1047400038B50C468D18A54200D138BD14F8011BB0
:10475000FFF7E6FFF7E7000042684AB11368818976
:104760004360438901339BB29942438138BF8381BF
:104770001046704770B588B0044620220D46684642
:104780000021FEF723F920460495FFF7E5FF0246D6
:1047900060B16B46054608AE1C46083503CCB442F2
:1047A00045F8080C45F8041C2346F5D1104608B01E
:1047B00070BD0000082817D909280CD00A280CD091
:1047C0000B280CD00C280CD00D280CD00E2814BFB0
:1047D0004020302070470C20704710207047142074
:1047E000704718207047202070470000082817D90C
:1047F0000C280CD910280CD914280CD918280CD93D
:1048000020280CD930288CBF0F200E20704709209B
:1048100070470A2070470B2070470C2070470D200E
:10482000704700002DE9F843078C0446072F1ED976
:1048300000254FF6FF73D0E90298C5F12006A5F1D7
:10484000200029FA05F1083508FA06F628FA00F0E2
:10485000314301431846C9B2FFF762FF402D0346BA
:10486000EBD13A46E169BDE8F843FFF769BF4FF67F
:10487000FF70BDE8F883000010B54B6823B9CA8A01
:1048800063F30902CA8210BD04691A681C600361DF
:10489000C38A013BC3824A60EFE700002DE9F84F6D
:1048A0001D46CB8A0F468146C3F30901924605296E
:1048B0000B4630D00020AAB207F11A049EB21FFAAC
:1048C00080F8042E0FD8904503F1010306D30A4463
:1048D000FB8A62F309030120FB821AE01AF80060E8
:1048E0000130E654EAE79045F1D2A1F1050B1C2313
:1048F0007C68BBFBF3F203FB12BB1FFA8BF6002CA8
:1049000045D14846FFF728FF044638B978606FF074
:104910000200BDE8F88F4FF00008E6E700260660C9
:104920007860ADB24FF0000B454510D90AEB080393
:10493000221D13F8011B08F101089155B1B21FFAAD
:1049400088F81B292BD0454506F10106F1D8FB8AD2
:10495000C3F30902154465F30903BCE701321C46A1
:1049600092B22368002BF9D16B1F0B441C21B3FBBF
:10497000F1F301339BB29A42D3D2BBF1000FD0D1F5
:104980004846FFF7E9FE20B9C4F800B0BFE70122AE
:10499000E7E7C0F800B05E4620600446C1E7454541
:1049A000D5D94846FFF7D8FE08B92060AFE7C0F870
:1049B00000B0002620600446B6E700002DE9F04F65
:1049C0001C46074688462DED028B83B05B69019239
:1049D000002B00F0A780238C2BB1E269002A00F0A5
:1049E000A180072B35D807F10C00FFF7B5FE05466F
:1049F00038B96FF00205284603B0BDEC028BBDE864
:104A0000F08F14220021FDF7E1FF228CE16905F10E
:104A10000800FDF7B5FF208C48F00041013080B25E
:104A2000FFF7E4FEFFF7C6FE013880B220840130B4
:104A3000287438466369228C1B782A4403F01F03CC
:104A400063F03F03137269602946FFF7EFFD01250C
:104A5000D1E702330722C18A9BB20633B3FBF2F3DC
:104A6000828A9BB2521A92B29342C2D84FF0000986
:104A700000F10C034FF0800A4E464D4608EE103A06
:104A800018EE100AFFF768FE83460028B1D0142202
:104A90000021FDF79BFF002E3AD1019B0222ABF8CB
:104AA00008300BF1080E1FFA82FC218C0CF101007A
:104AB000BCF1060F80B201D88E422BD3FFF796FED1
:104AC0008E4208BF4FF0400AFFF774FE626901385A
:104AD000013512781BFA80F1013002F01F022DB26D
:104AE00042EA491289F001094AEA020A48F0004202
:104AF00081F808A059468BF810003846CBF80420FE
:104B00004FF0000AFFF792FD238CB342B8D172E751
:104B10000022C6E7E169895D01360EF80210B6B2DF
:104B20000132C0E76FF0010565E70000F8B51546F2
:104B30000E463022002104461F46FDF747FF069B24
:104B4000B5F5001FA760636004F11000079B34BF38
:104B50006A094FF6FF72E661A362002397B29A4298
:104B600006D800230360A782E3822383E360F8BDB5
:104B70000660013330462036F1E7000003781BB9A8
:104B80004BB2002BC8BF017070470000007870471F
:104B9000F8B50C46C969074611B9238C002B37D1EB
:104BA000257E1F2D34D8387828BB228C072A2CD894
:104BB000268A36F003032BD14FF6FF70FFF7C0FDB6
:104BC00020F0010031024FF6FF72400441EA056116
:104BD000400C41EA4025234629463846FFF7EEFEC1
:104BE000002807DD626913780133DBB21F2B88BF11
:104BF00000231370F8BD218A2D0645EA01250543DF
:104C00002046FFF70FFE0246E5E76FF00300F1E7ED
:104C10006FF00100EEE7000070B58AB0044616465A
:104C20000021282268461D46FDF7D0FEBDF8383029
:104C300069462046ADF810300F9B05939DF8403033
:104C40008DF81830119B0793BDF84830CDE9026507
:104C5000ADF82030FFF79CFF0AB070BD2DE9F041A0
:104C6000D36905460C4616460BB9138C5BBB377EE1
:104C70001F2F28D895F80080B8F1000F26D03046B5
:104C8000FFF7D0FD337821020246284641EAC331BE
:104C9000338A41EA080141EA076141EA03413346A8
:104CA00041F08001FFF78AFE00280ADD3378012BEE
:104CB00007D1726913780133DBB21F2B88BF002341
:104CC0001370BDE8F0816FF00100FAE76FF00300A8
:104CD000F7E70000F0B58BB004460D4617460021FB
:104CE000282268461E46FDF771FE9DF84C30294685
:104CF00020465A1E534253416A468DF800309DF8B3
:104D00004030ADF81030119B05939DF848308DF878
:104D10001830149B0793BDF85430CDE90276ADF8F6
:104D20002030FFF79BFF0BB0F0BD0000406A00B1E0
:104D300004307047436A1A68426202691A6003616C
:104D4000C38A013BC38270472DE9F041D0F820802F
:104D500014461D46184E4146002709B9BDE8F081AA
:104D6000D1E90223A21A65EB0303964277EB030312
:104D70001ED2036A8B420DD1FFF77EFD036A1B68CA
:104D8000036203690B60C38A0161013B016AC3824C
:104D90008846E2E7FFF770FD0B68C8F8003003694A
:104DA0000B60C38A0161013BC382D8F80010D4E7CD
:104DB00088460968D1E700BF80841E002DE9F04FC6
:104DC0008BB00D4614469B46DDF850908046002877
:104DD00000F01881B9F1000F00F01481531E3F2B31
:104DE00000F21081012A03D1BBF1000F40F00A81CB
:104DF0000023CDE90833B8F81430B5EBC30F4FEA00
:104E0000C30703D300200BB0BDE8F08F2B199F42DE
:104E1000D8F80C3036BF7F1B2746FFB21BB9D8F835
:104E20001030002B7AD0272D4DD8C5F1280600234D
:104E30002946B742009308ABD8F808002CBFF6B259
:104E40003E46A7EB060A354432465FFA8AFAFFF778
:104E50002FFCB8F81430282103F10053053BDB0088
:104E60000493D8F80C300393039B13B1BAF1000FED
:104E70002CD1D8F8100040B1BAF1000F05D008AB22
:104E80005246691A0096FFF713FC38B2002FB9D0CA
:104E900066070AD00AAB624203EBD40102F00702B4
:104EA00011F8083C134101F8083C082C3DD9102C9E
:104EB00040F2B580202C40F2B780BBF1000F00F02B
:104EC0009C80082335E0BA460026C2E7049BE02B0D
:104ED00028BFE02306930B44AB42059315D95A1B18
:104EE0000398691A0096924508AB00F1040034BF9C
:104EF0005246D2B20792FFF7DBFB079A1644AAEBA1
:104F0000020A1544F6B25FFA8AFA049B069A0599DA
:104F10009B1A0493039B1B680393A5E700933A46EF
:104F200008AB2946D8F80800ADE7BBF1000F13D055
:104F30000123B4EBC30F6BD0082C12D89DF820309E
:104F4000621E23FA02F2D50706D54FF0FF3202FAAD
:104F500004F423438DF820309DF8203089F8003088
:104F600051E7102C12D8BDF82030621E23FA02F24D
:104F7000D10706D54FF0FF3202FA04F42343ADF80F
:104F80002030BDF82030A9F800303CE7202C0FD8A5
:104F90000899631E21FA03F3DA0705D54FF0FF32B3
:104FA00002FA04F40C430894089BC9F800302AE77D
:104FB000402C2AD0611EC4F12102A4F12103DDE9B5
:104FC000086526FA01F105FA02F225FA03F3114306
:104FD0001943CB0711D50122A4F12003C4F120010C
:104FE00002FA03F322FA01F1A2400B43524263EBAF
:104FF000430332432B43CDE90823DDE90823C9E904
:10500000002300E76FF00100FDE66FF00800FAE60C
:10501000082CA1D9102CB4D9202CEED8C4E7BBF1B0
:10502000000FAED0022384E7BBF1000FBCD00423F5
:105030007FE70000012A30B5144638BF012485B04F
:105040000025402C28BF4024012ACDE9025518D85C
:105050001B788DF8083063070AD004AB624203EB7B
:10506000D40502F0070215F8083C934005F8083C07
:10507000034600912246002102A8FFF719FB05B064
:1050800030BD082AE4D9102A03D81B88ADF80830AF
:10509000E1E7202A95BF1B68D3E900230293CDE9FD
:1050A0000223D8E710B5CB681BB98B600B618B82EC
:1050B00010BD04691A681C600361C38A013BC38286
:1050C000CA60F0E703064CBFC0F3C030022070474F
:1050D00008B50246FFF7F6FF022806D15306C2F3D1
:1050E0000F2001D100F0030008BDC2F30740FBE729
:1050F0002DE9F04F93B004460D46CDE903230A682D
:105100001046FFF7DFFF0228824614BFC2F30626CF
:105110000026002A80F2F88112F0C04940F0F481A4
:10512000097B002900F0F081022803D02378B342E4
:1051300040F0ED81C2F3046310462944069302F067
:105140007F030593FFF7C4FF059B002283464FEAC8
:105150008348002348EA0A4848EA4668CE78CDE901
:105160000823F30948EA0008029368D0059B024629
:1051700008A92046009353466768B847002800F006
:10518000C981276A4FB9414604F10C00FFF7F2FAD2
:10519000074690B96FF0020055E03B6998450DD085
:1051A0003F68002FF9D1414604F10C00FFF7E2FA05
:1051B00007460028EED0236A3B60276297F817C0A5
:1051C00006F01F08CCF3840CACEB0800A8EB0C0332
:1051D0001FFA80FE0028B8BF0EF120001FFA83FEE0
:1051E000B8BF00B2002B0793B8BF0EF12003D7E978
:1051F0000221BCBF1BB2079352EA010338D0039BC4
:105200004FF0000CDFF81CE39A1A049B63EB0101DA
:1052100096457CEB01032BD36B7B97F81AE0734523
:1052200019D1029B002B78D0012821DC7868F8B9CD
:10523000DFF8ECC2944570EB010316D337E0276A20
:1052400027B96FF00C0013B0BDE8F08F3B699845AB
:10525000B4D03F68F4E7B24890427CEB010301D33D
:105260000020F0E7029B002BFAD0079B0F2B17DCE6
:10527000FA7DB3003946204602F0030203F07C03B6
:105280001343FB75FFF7F8FA6B7BBB76029B3BB9C8
:10529000FB7DC3F38402013262F38603FB75D0E722
:1052A0006A7BBB7E9A42DBD1029B002B35D0B309CF
:1052B000022B32D0039B142200210DA8BB60049B5B
:1052C000FB60FDF783FB039B0AA920460A93049B1E
:1052D000ADF83EB00B932B1D8DF840A00C932B7BAB
:1052E0008DF84180013BDBB2ADF83C30069B8DF878
:1052F0004230059B8DF8433094F82C3083F0010345
:105300008DF84430A3689847FB7DC3F384030133D1
:1053100003F01F039B02FB82A2E7FB7DC6F3401252
:10532000B2EBD31F40F0F980C3F38403434540F050
:10533000FB80029AB6092B7B002A52D016F0010698
:1053400061D1032B40F2F380039B394604F10C003A
:10535000BB60049BFB60FB8A66F30903AE1DFB8206
:1053600032462B7B033BDBB2FFF798FA00280CDABE
:1053700039462046FFF780FAFB7DC3F384030133EF
:1053800003F01F039B02FB8204E7AB88DDE908847E
:105390003B834FF6FF73C9F12000A9F1200228FAE0
:1053A00009F109F1080904FA00F024FA02F20143B4
:1053B00018461143C9B2FFF7B3F9B9F1400F0346DC
:1053C000E9D1B88231462A7B033AD2B2FFF7B8F965
:1053D000FB7DB882DA43C2F3C01262F3C713FB75D8
:1053E0003EE786B92E1D013B394604F10C00DBB2C5
:1053F0003246FFF753FA0028BADB2A7B3146B88AD7
:10540000013AD2B2E2E7F98A013BC1F30901DAB20B
:1054100004295BD8281D002307F11B069A4208D9EE
:1054200010F801CB013306F801C00131DBB20529C8
:10543000F4D1039993420A9138BF043304992CBFE5
:10544000002355FA83F30B9107F11B010C91796846
:105450000E930D91291DFB8AADF83EB0C3F30903ED
:105460008DF840A08DF841801A44069B8DF842309B
:10547000059BADF83C208DF8433094F82C3083F038
:1054800001038DF844300023B88A7B602A7B013AFF
:10549000FFF756F93B8BB882834203D1A3680AA970
:1054A0002046984720460AA9FFF7FCFDFB7DBA8AF3
:1054B000C3F38403013303F01F039B02FB823B8B86
:1054C0009A420CBF00206FF01000BCE67B68002BF6
:1054D000AFD0052001E01C3033461E68002EFAD103
:1054E000091A2E1D081D184401EB090C5FFA89F3F7
:1054F000BCF11B0F9DD89A429BD916F8013B09F1CC
:10550000010900F8013BEFE76FF009009BE66FF03F
:105510000A0098E66FF00B0095E66FF00D0092E63A
:1055200040420F0080841E006FF00E008BE66FF08B
:105530000F0088E6006870470346006859687047A6
:105540000B0A017043700B0C090E8370C170704719
:10555000110A027003714170110C120E8170C27039
:105560001A0A42711A0C1B0E8271C3717047000037
:10557000C36A0239023B8B4283BF4389006C01FB43
:105580000300002070470000C2F307238A76CB7621
:105590000378032B01BF120C0A75120A4A75704773
:1055A00000F10B010022D30143EA520310F8012B52
:1055B00052FA83F38842DAB2F5D110467047000000
:1055C00010B5417804460020013102464901022A03
:1055D00016BFA35C032203EBC03302F101021EBF1E
:1055E0009BB203EB500398B29142F0D810BD00007B
:1055F00002684AB1134613F8011B1F290DD93A2935
:10560000F9D1911C8B4202D04FF0FF3070471278D5
:10561000302AF9D1036000207047014B1878704799
:10562000B061002038B50D46044618B909200023A2
:105630002B6038BD0368002BF8D01A78002AF5D00B
:105640008188DA889142F1D1587804F0BBFC10F0DF
:105650000100EBD12368EBE738B50D4640F252313B
:10566000144602F0B9F9FF2807D9012C0BD9030A17
:10567000022468702B70204638BD30B1002CFAD05F
:1056800001242870F7E70024F5E70446F3E700005B
:105690002DE9F8430026D0F8008005460C468E76AA
:1056A000836B002B4AD098F80030042B4BD1334643
:1056B0003546402720E0B7F5187F80F0C480F90612
:1056C00006F1010608BF0237D05B02372BB900F59F
:1056D000205292B2B2F5006F0DD305F11A01C5F157
:1056E000FF0240EA03402144FFF7B6FF002800F024
:1056F000AA80054400200346D8F8102092F8231011
:10570000B142D8D8002B40F09E80002D00F09B8045
:1057100000232544AB766373D8F81020137903F087
:105720003701DB0621730BD402F13800FFF704FFC9
:10573000C4E9000193896381D3892381BDE8F8839B
:1057400000200146F4E7C36C01335ED1EA6B00230D
:105750002E26551E184615F8011F013020290CD0A1
:10576000052908BFE521092804D10B2B9EBFE718A6
:1057700001337E73E718013379730B28EBD1E118FD
:1057800000204873A17E00294BD1002B40D06FF040
:105790000C0604F10D000825361B331810F8011B08
:1057A000002938D02E298BB24AD0A3F14101192902
:1057B00003D8117B0D4200D020330373EDE7B9F11C
:1057C000000F05D100F520539BB2B3F5006F0BD34A
:1057D00007F11A01C7F1FF0240EA09402144FFF72F
:1057E0003BFF48B10744002002368146D8F80C3010
:1057F000985B0028E3D13846B9F1000F4FF0000262
:1058000018BF002023189A76A0E7B1463746EDE787
:105810003F23A3760123234400219976137B03B908
:105820006373D37A02F11C0003F03F032373002358
:10583000FFF780FE20606360D38A6381138B7CE76F
:1058400010250B46B9E73F230125A37660E700004A
:1058500038B50546002435F8020B08B9204638BD96
:1058600002F0EEF86308C2B203EBC43312FA83F31A
:105870009AB2C0F3072303EB520303EBC2339CB28B
:10588000E9E7000037B5C37804461BB90025284670
:1058900003B030BD00F14C01826C012340780191CE
:1058A00004F0B6FB054680B9A36BE070A06C226BD8
:1058B000C31A9342EAD2A3780199022BE6D102449B
:1058C0000123607804F0A4FBE1E70125DFE7000095
:1058D00038B5836C05460C468B4210D0FFF7D2FFDB
:1058E00060B92246012305F14C01687804F06CFB95
:1058F00000281CBF4FF0FF340120AC6438BD0020ED
:10590000FCE7000038B500230446C3704FF0FF33B6
:105910008364FFF7DDFF00284BD1B4F84A524AF602
:1059200055239D4207D10B22254904F14C0006F076
:10593000ADFE00283FD094F84C30EB2B03D0183349
:10594000DBB2012B2ED84AF655239D4206D1082200
:105950001C4904F19E0006F099FE48B3B4F8573094
:10596000B3F5007F1ED194F85930DBB15A1E1A42AC
:1059700018D1B4F85A30ABB194F85C30013B012B2C
:1059800010D8B4F85D306BB1B4F85F307F2B06D817
:1059900004F16C00FFF7CEFDB0F5803F02D3B4F800
:1059A000623053B94AF6552085420CBF02200320CD
:1059B00038BD0420FCE70120FAE70020F8E700BF2B
:1059C0006CC9000878C9000802392DE9F04701F0D8
:1059D00007044FF0010A466C05460AFA04F417461C
:1059E000984606EB1136C1F3C809E4B231462846A1
:1059F0000136FFF76DFF18B10120BDE8F087994629
:105A000005EB090292F84C30234214BF012100211A
:105A1000414513D06340013F82F84C3085F803A024
:105A2000EBD0640014F0FF04EAD109F10103012472
:105A30004FF00009B3F5007FE1D1D7E70220DCE7A2
:105A400001290246F8B50C4640F28C800668F36ADC
:105A50008B4240F287803378013B032B00F2828037
:105A6000DFE803F00229384B04EB5405B16B3046F4
:105A700001EB5521FFF72CFF10B14FF0FF30F8BDBF
:105A80006F1CC5F30805B16B3046354401EB572157
:105A900095F84C50FFF71CFF0028EED1C7F308071C
:105AA000E3073E4496F84C0045EA00204CBF00094D
:105AB000C0F30B00E3E7B16B304601EB1421FFF7B5
:105AC00007FF0028D9D1640004F4FF742644B6F817
:105AD0004C00D4E7B16B304601EBD411FFF7F8FE70
